:100000000C9461000C947E000C947E000C947E0095
:100010000C947E000C947E000C947E000C947E0068
:100020000C947E000C947E000C947E000C947E0058
:100030000C947E000C947E000C947E000C947E0048
:100040000C944F010C947E000C947E000C947E0066
:100050000C947E000C947E000C947E000C947E0028
:100060000C947E000C947E00000000002400270009
:100070002A000000000023002600290000000000E4
:10008000250028002B0004040404040404040202D4
:100090000202020203030303030301020408102007
:1000A0004080010204081020010204081020000012
:1000B0000008000201000003040700000000000027
:1000C000000011241FBECFEFD8E0DEBFCDBF11E08E
:1000D000A0E0B1E0E6EBF4E002C005900D92A230A2
:1000E000B107D9F721E0A2E0B1E001C01D92AC3028
:1000F000B207E1F70E9499010C9459020C94000098
:10010000833081F028F4813099F08230A9F008958D
:100110008730A9F08830C9F08430B1F48091800034
:100120008F7D03C0809180008F7780938000089539
:1001300084B58F7784BD089584B58F7DFBCF809182
:10014000B0008F778093B00008958091B0008F7DCC
:10015000F9CF1F93CF93DF93E0EBF0E09491ECE9BC
:10016000F0E0D491E8E8F0E0C491CC23B9F0182F86
:10017000992319F0892F0E948000EC2FF0E0EE0FF8
:10018000FF1FE458FF4FA591B4918FB7F894EC91FD
:10019000111108C0D095DE23DC938FBFDF91CF9182
:1001A0001F910895DE2BF8CFCF93DF93E1EBF0E0C2
:1001B0008491EDE9F0E0D491E9E8F0E0C491CC233A
:1001C000A1F081110E948000EC2FF0E0EE0FFF1FE4
:1001D000EE58FF4FA591B491EC91ED2381E090E0B2
:1001E00009F480E0DF91CF91089580E090E0FACFAC
:1001F0003FB7F8948091080190910901A0910A01FC
:10020000B0910B0126B5A89B05C02F3F19F00196B0
:10021000A11DB11D3FBFBA2FA92F982F8827BC0160
:10022000CD01620F711D811D911D42E0660F771F88
:10023000881F991F4A95D1F708958F929F92AF9288
:10024000BF92CF92DF92EF92FF924B015C010E942E
:10025000F8006B017C010E94F8006C197D098E0981
:100260009F09683E734081059105A8F321E0821A39
:100270009108A108B10888EEC80E83E0D81EE11CE1
:10028000F11C81149104A104B10429F7FF90EF90AF
:10029000DF90CF90BF90AF909F908F9008951F9266
:1002A0000F920FB60F9211242F933F938F939F932A
:1002B000AF93BF938091040190910501A091060135
:1002C000B09107013091030123E0230F2D3758F53A
:1002D0000196A11DB11D2093030180930401909309
:1002E0000501A0930601B093070180910801909148
:1002F0000901A0910A01B0910B010196A11DB11D48
:100300008093080190930901A0930A01B0930B0117
:10031000BF91AF919F918F913F912F910F900FBE01
:100320000F901F90189526E8230F0296A11DB11D6E
:10033000D2CF789484B5826084BD84B5816084BD59
:1003400085B5826085BD85B5816085BD80916E0073
:10035000816080936E0010928100809181008260A4
:1003600080938100809181008160809381008091E1
:1003700080008160809380008091B10084608093D0
:10038000B1008091B00081608093B00080917A00CC
:10039000846080937A0080917A00826080937A00F2
:1003A00080917A00816080937A0080917A008068E1
:1003B00080937A001092C100ECE9F0E02491E8E823
:1003C000F0E08491882399F090E0880F991FFC0158
:1003D000E859FF4FA591B491FC01E458FF4F859176
:1003E00094918FB7F894EC91E22BEC938FBFEDE9E9
:1003F000F0E02491E9E8F0E084918823C1F090E0F6
:10040000880F991FFC01E859FF4FC591D491FC0159
:10041000E458FF4FA591B4919FB7F8943881822F8B
:10042000809583238883EC91E22BEC939FBFC0E0FF
:10043000D0E00E94D400892BB9F462E370E080E040
:1004400090E00E941D010E94D400892BB1F380919D
:10045000020191E0892780930201882341F1809174
:100460000001892780930001809102018823F9F01F
:1004700080910001811104C081E00E94A90012C096
:1004800081E00E94A90068EC70E080E090E00E94AA
:100490001D0180E00E94A90068EC70E080E090E01F
:1004A0000E941D01209729F20E940000C2CF80E027
:0604B000E4CFF894FFCF39
:0204B600010043
:00000001FF
